:020000040800F2
:10000000E0120020250400082D0400082F04000839
:100010003104000833040008350400080000000023
:10002000000000000000000000000000F5020008D1
:100030003904000800000000AD03000811040008A6
:100040003F0400083F0400083F0400083F04000884
:100050003F0400083F0400083F0400083F04000874
:100060003F0400083F0400083F0400083F04000864
:100070003F0400083F0400083F0400083F04000854
:100080003F0400083F0400083F040008000000008F
:100090000000000000000000000000003F04000815
:1000A0003F0400083F0400083F0400083F04000824
:1000B0000000000000000000000000003F040008F5
:1000C0003F0400083F0400083F0400083F04000804
:1000D0003F0400083F0400083F040008000000003F
:1000E0003F0400083F04000800000000000000007A
:1000F0000000000000000000000000003F040008B5
:1001000000000000000000003F04000800000000A4
:1001100000000000000000003F0400080000000094
:100120003F0400083F0400083F0400083F040008A3
:100130003F04000800000000000000000000000074
:1001400000000000000000000000000000000000AF
:100150003F0400083F0400083F0400083F04000873
:10016000000000000000000000000000000000008F
:10017000000000000000000000000000000000007F
:100180003F0400083F0400080000000000000000D9
:10019000000000003F040008000000000000000014
:1001A000000000000000000000000000000000004F
:1001B0000000000000000000000000003F040008F4
:1001C0003F0400083F04000800F002F800F03CF88B
:1001D0000AA090E8000C82448344AAF10107DA45A2
:1001E00001D100F031F8AFF2090EBAE80F0013F0B8
:1001F000010F18BFFB1A43F00103184790170000C6
:10020000B0170000103A24BF78C878C1FAD8520756
:1002100024BF30C830C144BF04680C607047000080
:100220000023002400250026103A28BF78C1FBD8FF
:10023000520728BF30C148BF0B6070471FB501F09F
:1002400054FB1FBD10B510BD00F022F91146FFF799
:10025000F5FF0FB400F00CF80FBC00F043FA00F00B
:1002600005F903B4FFF7EEFF03BC00F00BF9000043
:1002700004B000F05DFA0448002100F0ADFA00F08F
:1002800069FA00F0F3F800007C19000880F309888F
:100290007047EFF309807047684680F30988044887
:1002A0000078C00714BF0220032080F31488704731
:1002B0003C190008DFF818C0EFF305831B0618BFD0
:1002C0006047EFF31483DB0708BF604700DF704728
:1002D000BF080008DFF818C0EFF305831B0618BF3E
:1002E0006047EFF31483DB0708BF604700DF704708
:1002F0009D0A0008EFF30980816911F8021CE1BB37
:1003000090E80F1010B5E047BDE81040EFF3098CFE
:100310008CE80700214B93E80600914208BF704724
:1003200041B91EF0100F16D11D49086820F00100D8
:10033000086010E01EF0100F06BF2CED108A01209F
:10034000002081F825002CE9F00FC1F828C00CB47A
:1003500000F04EFF0CBC1A60D2F828C0BCE8F00FC9
:1003600092F8250000280EBF6FF0020E6FF0120EFB
:10037000BCEC108A8CF30988704710B5094A1268E2
:10038000914209D8084C54F8214090E80F10A0473A
:10039000EFF3098C8CE80F0010BD00002C0000204A
:1003A00034EF00E0DC040008DC04000810B500F0C5
:1003B000E3FDBDE81040154B93E80600914208BFED
:1003C0007047EFF3098C1EF0100F06BF2CED108A5A
:1003D0000120002081F825002CE9F00FC1F828C089
:1003E0000CB400F005FF0CBC1A60D2F828C0BCE8C1
:1003F000F00F92F8250000280EBF6FF0020E6FF08C
:10040000120EBCEC108A8CF3098870472C00002077
:1004100010B500F0B5FFCCE710B500F04FFA00F0D2
:10042000AFFFC6E70948804709480047FEE7FEE7F7
:10043000FEE7FEE7FEE7FEE7FEE7FEE7FEE7FEE794
:1004400004480549054A064B70470000E1040008CE
:10045000C9010008E00C0020E0120020E00E00209E
:10046000E00E0020004870477C0C002010B50446C8
:10047000AFF300802046BDE81040FFF7F2BE7047A2
:100480007047704701491820ABBEFEE72600020006
:100490007546FFF7E7FFAE4605006946534620F074
:1004A0000700854618B020B5FFF7CAFFBDE8204019
:1004B0004FF000064FF000074FF000084FF0000B20
:1004C00021F00701AC46ACE8C009ACE8C009ACE8D3
:1004D000C009ACE8C0098D467047704700000000B5
:1004E0001448006840F4700012490860124800681F
:1004F00040F001001049086000200F4908310860F1
:100500000D4800680D4908400B4908600C48091D5A
:100510000860081F006820F48020091F0860002080
:1005200005490C3108604FF00060024980390860CD
:100530007047000088ED00E000380240FFFFF6FE43
:100540001030002410B5002A06DA22F00042D21D35
:1005500022F00703102203E0D21C22F003030C2236
:1005600013B19C188C4201D9012010BD02440144F2
:100570008360C0E90021C91AD018884202D81060EF
:100580000246F9E70020106010BD00000549097817
:10059000002905D000684FF6FF71DFF80CC000DFBE
:1005A0007047000025000020010F00080449097869
:1005B000002903D00068DFF80CC000DF704700009E
:1005C00025000020290E000808480068C0010BD54E
:1005D00007480068C00707D0054880380068002831
:1005E00002DA04490120087070470000FCED00E0C9
:1005F000800E00E0480000204FF06042D36F002BD7
:10060000FCD0036BD367D36F002BFCD0C07840EADB
:100610000120A2F87C0070474FF06041CA6F002AA9
:10062000FCD081F87C0070470EB5802200B109B182
:1006300010460AE001780129FAD101A900F020F85A
:10064000042801D0002000E01020DDE9011203B0F1
:1006500000BD70B50D46040003D012B92078012802
:1006600001D0802070BD204600F0D8FA28B129467C
:10067000204600F030F8002070BD812070BD0000E1
:1006800010B504468089002824D0608904EB8000DE
:1006900000690860606840B16078022805D10021D7
:1006A000204600F0B7FC00F0A5FC04F10C0000BFF0
:1006B000D0E85F1F491E8AB2C0E8512F0029F7D148
:1006C0006089401C80B26081E189884201D10020AC
:1006D0006081042010BD10B500F09CFCBDE8104006
:1006E00000F088BC00F09AF80A49086000210A4826
:1006F00000F072F8094908600021094800F06CF820
:10070000084908600021084800F066F807490860B9
:1007100000BFFEE700000020F418000804000020DD
:100720000419000808000020141900080C0000201B
:10073000EFF3058008B182207047EFF31480C00703
:1007400003D0DFF80CC000DF704700F0A5BF000049
:100750009916000888B0EFF3058010B1822008B028
:100760007047EFF3148010F00301134806D00129FD
:100770001BD0022911D0032919D113E008A981F354
:1007800009880078C0070BD05FF0020080F314885E
:10079000BFF34F8FBFF36F8F09E00078C00706D11A
:1007A0000320F3E70078C00701D0FF20D7E7DFF888
:1007B0000CC000DFD3E700003C190008091700084F
:1007C000EFF305820AB1FFF72FBFDFF808C000DFA3
:1007D0007047000075170008EFF305820AB100208A
:1007E0007047EFF31482D20702D1044A52781AB14B
:1007F000DFF80CC000DF704700F0DABF24000020F3
:10080000B1170008DFF80CC000DFDFF80CC000DF14
:10081000FEE700001D18000839180008EFF30580F6
:1008200008B100207047DFF808C000DF7047000003
:100830001D180008DFF804C000DF704771180008B9
:10084000094C4FF0FF3529462068FFF7B9FF0246F3
:100850000846102AF7D1FFF7EDFF0028F3D0024633
:1008600008469047EFE7000014000020012806D05A
:10087000022805D0032804D0042804D102E003E0B4
:1008800002E001E000E000BF00BF00BFFEE700BFE4
:10089000FEE70000074801684FF0E02041610021B9
:1008A0008161072101610448016841F07F410160D5
:1008B000401770473819000820ED00E0704750E8F5
:1008C000001F31B10B6840E80032002AF7D108461A
:1008D0007047BFF32F8FFAE710B568B161B10B31E4
:1008E00021F00302016844680B1A1B1B934205D2D6
:1008F000084609680029F5D1002010BD210007D065
:1009000021180368C1E90032016001F1080010BD3F
:100910004260083010BD000070B50D46002812D0AE
:100920004FF6FF71084C884204D2226801461046F7
:1009300000F09EFB20684570044800F0D9F8BDE83F
:10094000704000F067BC70BD2C0000204C0C0020F3
:100950000F4810B50D4942680E480B680068934275
:1009600004D00A60CB88421E1A448A808A8880B2EA
:1009700082420AD100200860054800F0B9F801461B
:10098000BDE81040024800F097BB10BD40000020B9
:100990004C0C00203C00002070B5194DE868002880
:1009A0002CD0A88A401EA882002621E0A06838B179
:1009B00061684160606810B1A16881606660A6608E
:1009C0000F482146183800F077FBA08AA88260788B
:1009D000042804D10B49E08A09880844A082012038
:1009E0006070E068E860E06808B10561E660266173
:1009F000A88A002802D1EC68002CD7D170BD000075
:100A0000640C00203C00002070B504000FD00D4D98
:100A1000A17801262868827891420CD900F068FB01
:100A2000286846702046BDE8704000F0F3BB0648D9
:100A300000F05EF8F7E766702146BDE870400248B6
:100A400000F03ABB2C0000204C0C002010B50446EE
:100A5000008B084320836278618B062A18D0052A10
:100A600019D1084217D001EA00026283884320832B
:100A7000204600F077FB01206070628B0821204641
:100A800000F068FB2146BDE81040034800F014BBAD
:100A900031EA0002EAD010BD4C0C0020814202D3A2
:100AA00042688A4201D80120704702680A60BFF399
:100AB0005F8F50E8003F0A689A42F6D140E8001282
:100AC000002AF2D10020704768B161B100220839D4
:100AD00002E00246006830B18842FAD12AB10068CB
:100AE0001060002070470120704700214160F8E746
:100AF0000146406842684A600B780022022B05D00C
:100B0000012B03D0032B01D04260704743680BB127
:100B10009960426082607047810700D00020704772
:100B200070B5044600201546207001226270A17045
:100B300084F824106060A060E06020612062A082E0
:100B4000E0822083608384F82500E08C18B9054892
:100B5000FFF7B5FEE06229462046BDE8704000F090
:100B60001DB80000C801002008B1082901D20120E9
:100B700070470144091F002201600A60426010466C
:100B80007047000003480021016003490988C180C3
:100B900070470000400000202C19000870B5C28C7E
:100BA0001C4D930802D12A88C2F38D03C26A02EB5E
:100BB0008302540700D5121F4FF0807442E90214DB
:100BC00000242646B2F1400242F82460641C0E2C38
:100BD000FAD3C4691462826201632968C90014D51A
:100BE000112B12D94FF0FF31103B11EB53014FF095
:100BF000CC3305D042F8043C42F8083D491EF9D1F7
:100C0000C16A121F8A4200D91360C06A024901609A
:100C100070BD000028190008A52E5AE2C1898089FC
:100C2000081A7047012202700022427082704260EE
:100C300002814281103982818908C1817047000098
:100C40002DE9F041044640680E464FF0000804F1DB
:100C50000C05E8B36078012701283ED0022813D0A4
:100C600003285CD10846FFF72AFE050057D020462E
:100C7000FFF73EFF0446294600F066FA67702046FB
:100C800000F070FA214621E02046FFF731FF0646CA
:100C9000002100F059FA2189F06904EB8101086113
:100CA000D5E85F0F401C81B2C5E8501F0028F7D17E
:100CB0002089401C80B22081E189884201D1A4F8BA
:100CC00008807770304600F04DFA3146174800E052
:100CD0000CE0BDE8F04100F0EFB92046FFF708FF57
:100CE00004463246102100F035FAC7E7A089E189B1
:100CF000884216D2208904EB80000661D5E85F0F98
:100D0000401C81B2C5E8501F0028F7D12089401C43
:100D100080B22081E189884201D1A4F80880BDE831
:100D2000F081BDE8F0410320FFF7A0BD4C0C00208E
:100D300070B50446808915460026C0B3608904EB6F
:100D40008000006908606089401C80B26081E18990
:100D5000884200D16681606810B1607802280BD0AB
:100D600014F10C04D4E85F0F401E81B2C4E8501F98
:100D70000028F7D1002070BD2046FFF7B9FE0546D8
:100D8000002100F0E1F92189E86904EB81010861A3
:100D90002089401C80B22081E189884200D12681CF
:100DA000284600F0DFF92846FFF72EFEE2E7FFE7CE
:100DB0003DB10B48626801682AB1204600F07CF919
:100DC00008E0012070BD616001684E6000688460C9
:100DD0000120607008212846FFF79EFDF1E7000022
:100DE0002C000020002814D0411C13D00C4A4FF6D0
:100DF000FE7190420CD800EB4002C2EBC0120948D1
:100E0000036803EBC202521EB2FBF3F0884204D91E
:100E1000084670474FF6FF70704780B27047000079
:100E200000093D00481900082DE9F04104464088BA
:100E300020B1314DA1682A68914202D0FF20BDE85F
:100E4000F081401E0004000C608053D12968086ABC
:100E5000A04209D1E068086208E0C268A24202D15B
:100E6000E268C26002E010460028F6D191F8240042
:100E70000A6A06E053681BB19B78834200D9184682
:100E8000D268002AF6D18870DFF870806168012688
:100E900011B32046FFF72CFE0746002100F054F95D
:100EA000384600F05FF96680A760386AE0603C620F
:100EB0002968D8F804008A788078824201D33846BD
:100EC00016E00E4800F0F8F839460C4800F0F4F847
:100ED000286846707E700AE0D8F804108A7829687D
:100EE000824207D9054800F0E7F8286846700020DC
:100EF000FFF78AFD0020A2E72C0000204C0C002008
:100F000070B51C4D0E4604464188286861B1A26840
:100F1000824210D1A1F57F40FF3803D0491C618087
:100F2000002070BDFF2070BDA060016AE160046216
:100F300001206080F4E776B191788078814203D215
:100F40009070A06800F0DEF8606830B12046296833
:100F500000F0B2F808E0012070BD286860602968E0
:100F6000002048602868846009213046FFF7D4FCDF
:100F7000F1E700002C00002070B51B480121026839
:100F80005170006800F0B4F8184D6C7818E000BF9C
:100F900005EBC40148680278EAB1012A20D000F0CC
:100FA0000DF9E878641C844200D100240F48801CAD
:100FB000D0E84F1F491EC9B2C0E8421F002AF7D12E
:100FC000A8780028E4D16C700948FFF791FDBDE8CE
:100FD000704000F01FB9098989B2FFF737FDE0E7DB
:100FE0008968FFF72DFEDCE72C0000203808002080
:100FF0004C0C00200548017811B101214170704767
:1010000003494FF080500860704700003400002012
:1010100004ED00E0F0B4154DAB1CEE784FEA050787
:10102000D3E84F2FB24202D1BFF32F8F11E0521CF1
:10103000D4B2C3E8424F002AF2D100BFD7E84F2F05
:10104000541CB44200D10024E4B2C7E8434F002B43
:10105000F4D1EB78934205D905EBC202C2E9010154
:10106000F0BC7047F0BC0220FFF700BC380800203D
:10107000104A10B5D368ABB113469B8A03E08CB11C
:101080002246A48A2344D4688B42F8D3C460D0603B
:101090000261C46804B12061591A8182908A401AA1
:1010A000908210BD0024C460D060C91A0261918290
:1010B000848210BD640C002030B502780023022A1F
:1010C00003D0012A01D0032A00D101238C7800E04B
:1010D0001046426812B19578A542F9D24A60416043
:1010E0001BB102B19160886030BD0020FBE70000B9
:1010F00003494A68426000228260486070470000ED
:101100004C0C002010B5836804462BB96078012888
:101110000ED1084B03E09B6818780028FBD02046CE
:1011200000F034F82146BDE810401846FFF7C4BF70
:1011300010BD00004C0C002090F82510806A09B109
:10114000603070472030704710B50C46FFF7F4FF51
:10115000046010BD70B515460C46FFF7EDFFC0E901
:10116000004570BD10B5016900290ED0C268CA6083
:10117000C36800223BB18B8A848A23448B82C36874
:101180001961C26000E08A82026110BD816839B1D4
:1011900042684A604168002901D0806888607047D1
:1011A000054906E04A68824202D1406848607047BB
:1011B00011460029F6D170474C0C002010B541684B
:1011C00081B1FFF795FC0446FFF7CCFF012060706A
:1011D00001462046FFF7B8FF2146BDE8104003480E
:1011E000FFF76ABF4188491C418010BD4C0C0020AC
:1011F00006480068D0E90A10814203D30068044918
:10120000884202D00120FFF731BB70472C0000203C
:10121000A52E5AE20749022248604270064A127817
:10122000002A05D006C98A4202D0C078FFF7F4B977
:10123000704700002C0000204800002070B5FFF728
:10124000C3F900200446204A204902E042F8204029
:10125000401C0B889842F9D31D48342201881D4850
:10126000FFF770F91C48008880B240F000421B482C
:1012700001681B48FFF766F91A48082201881A48D6
:101280000068FFF75FF9194DFF20194AE870EC84F8
:1012900000212846FFF744FC1648042101704460F1
:1012A00015480170C46004618482144815490560C2
:1012B000022068701248047044700978C170BDE85B
:1012C0007040FFF75FBC0000BC0800202419000834
:1012D000501900085000002028190008541900086F
:1012E000C8010020781900081C000020180C0020FC
:1012F0008F0800084C0C0020640C00202C000020FB
:10130000380800205C1900081B4810B5016841F43A
:101310007F01016000684FF07F4101EA002016491B
:10132000C0431439B0FA80F00968C0F10800C1F375
:101330000221814200D3481C0F49091F0B686FF03E
:101340008072824063F317020A60FFF7A3FA0B4929
:10135000002808600EDB00F1E021FF2281F8002464
:1013600000F01F02012191404009800000F1E020BF
:10137000C0F8001110BD000020ED00E03800002092
:101380000C4810B50268012151700068FFF7B0FEEB
:10139000FFF7DEFA08480168491C0160FFF7FCFA14
:1013A00000F072FA0548FFF7A3FBBDE81040FFF715
:1013B00031BF00002C0000203C0000204C0C00201D
:1013C000002805D0810702D10178002900D0002033
:1013D0007047000030B50B4C0023626805E095684B
:1013E0008D4204D813461268491B002AF7D10260C7
:1013F000816012B19568691A91600BB1186030BDB7
:10140000606030BD240000202DE9F0411E461746E3
:1014100080460D4611F0FF0F00D14D1C1848FFF714
:101420004EFA041E16D0280AE762E084E9B242466A
:101430002046E661FFF774FB01251248124905E0DA
:1014400000EB850252F8042C32B16D1C0A889542DB
:10145000F6D90020BDE8F081002DFAD000EB850020
:1014600040F8044C0948E570007818B10121204685
:10147000FFF7C2F82046FFF7C7FA2846EAE7000060
:1014800050000020BC08002024190008480000205B
:101490002DE9F05F584DDFF85891DFF85881296841
:1014A0004FF0010A002618B1CA78AB46824243D1F8
:1014B0004E70FEF7EEFE29688862FFF799FE2868F5
:1014C000046A1FE06068C0B12046FFF711FB0746C1
:1014D0000021FFF739FE3846FFF744FE87F801A0E8
:1014E00039464648FFF7E8FDE168A4F802A0A76086
:1014F000386AE0603C620C4604E0E0686680A66002
:10150000E6600446002CDDD12868C27808EB820131
:1015100041F8046CC16A3A48FFF7C0FA2868C6620D
:1015200099F8001011B10021FFF766F835482968D5
:10153000FFF7B4FA2E6056E03349098888420CD888
:1015400008EB800858F8045C3DB12846FFF71EFE02
:101550002846FFF707FE2C6A22E0FF20BDE8F09F37
:101560006068C0B12046FFF7C3FA07460021FFF7C5
:10157000EBFD3846FFF7F6FD87F801A039461F4816
:10158000FFF79AFDE168A4F802A0A760386AE0605E
:101590003C620C4604E0E0686680A660E6600446B3
:1015A000002CDDD148F8046C1548E96AFFF776FA9B
:1015B000EE6299F8000018B100212846FFF71CF8E8
:1015C00029461048FFF76AFA0C48DBF8001040681B
:1015D0008B7882789A4209D981F801A00748DBF814
:1015E0000010FFF769FD0020FFF70EFA0020B5E7B5
:1015F00048000020BC0800202C0000204C0C0020DB
:10160000C8010020500000202419000870B51A4DB0
:1016100080B11A4A128890421FD8194A02EB800002
:1016200050F8044CCCB1A17084F824102868A04272
:1016300005D014E028688170286880F824101148CB
:1016400040688078884215D90E482968FFF734FD34
:1016500029680120487000200AE0FF2070BD204664
:10166000FFF750FD6078012804D10648FFF740FAE3
:10167000FFF7CAF9002070BD2C00002024190008D3
:10168000BC0800204C0C002002480068002800D054
:10169000C07870472C00002010B5134C207860B93A
:1016A0001248400705D1124801681048FFF75CFA5C
:1016B00008B1852010BDFFF7C1FD0E49FF20096864
:1016C0008870207858B900210B4800F041F80B4988
:1016D000086000210A4800F06BF80A490860012000
:1016E00020700020607010BD2400002088060020BB
:1016F000581900082C000020701900081400002060
:10170000601900081000002070B50F4D687808B10E
:10171000002070BD0D4C206890F824100020FFF7C9
:1017200075FF2068C178FF2903D1816A203181F3D8
:101730000988616811B9606000202060FFF7E4FD4E
:1017400001206870E4E70000240000202C00002045
:1017500010B5040005D0216819B1606808B102789D
:101760000AB1002010BD8900103189B2FFF75AFA82
:10177000606810BD3EB504000D464FF0800012D0E9
:10178000217801290FD12846FFF72CFB024620467D
:1017900001A9FFF7CDFA012801D0102003E00DB117
:1017A000402000E00020DDE9011203B030BD000060
:1017B00070B50E46040029D0206838B3606810F177
:1017C000030F23DB032821DCE16829B11048FFF770
:1017D00083F805001AD000E000256068E168001D6C
:1017E00040EA012133462A462068FFF70DFE40B14A
:1017F000084901EB8000084950F8040C826A5163E3
:1018000070BD1DB129460248FFF75EF9002070BD8A
:1018100088060020BC0800200508000810B5FFF766
:1018200033FF002804D0034901EB800050F8040C7A
:1018300010BD0000BC08002010B5FFF7C1FD18B1B5
:10184000C18C19B1C46A02E0802010BD0024C078A8
:10185000FFF71EFEFF2806D01CB121460348FFF704
:1018600033F9002010BD812010BD00008806002043
:1018700010B5FFF751F920B141690A6801691046B6
:1018800010BD0020014610BD2DE9F041134E7468D3
:10189000002C1CD0A068124F401E4FF00108A06021
:1018A00012E0254624687460002229463868FEF755
:1018B000D0FE10B10420FEF7D9FF6879012808D0C6
:1018C00085F80480002C02D0A0680028E9D0BDE88B
:1018D000F0812846E968FFF77DFDF3E7240000204A
:1018E000140000207047704770474FF04070E1EEE1
:1018F000100A7047E5180008000000000100000011
:1019000000000000E71800080000000001000000CF
:1019100000000000E91800080000000001000000BD
:101920000000000007000000C800020105000100DF
:10193000001BB7000C000000DF2E000001000000BB
:101940000200010052000400E80300000000000053
:1019500078010000C0040000B00100001000000089
:10196000410800080200000001000000C80000005B
:1019700004000000D808002000000000E506000870
:101980000000000001000000C8000000AC190008C1
:10199000000000204C00000004020008F8190008B4
:1019A0004C000020941200002002000800000000FB
:1019B0000000000000000000000000000000000027
:1019C0000000000000000000000000000000000017
:1019D0000000000000000000000000000000000007
:1019E00000000000000000000000000000000000F7
:0819F0000000000000000000EF
:0400000508000425C6
:00000001FF
